:100000000C9453000C947B000C947B000C947B00AC
:100010000C947B000C947B000C947B000C947B0074
:100020000C947B000C947B000C947B000C947B0064
:100030000C947B000C947B000C947B000C947B0054
:100040000C94B8010C947B000C9428020C940202CE
:100050000C947B000C947B000C947B000C947B0034
:100060000C947B000C947B0000000000250028000D
:100070002B0000000000240027002A0004040404D0
:100080000404040402020202020203030303030342
:10009000010204081020408001020408102001021F
:1000A00004081020B00211241FBECFEFD8E0DEBF3D
:1000B000CDBF11E0A0E0B1E0E2EBFAE002C00590B4
:1000C0000D92A233B107D9F723E0A2E3B1E001C05A
:1000D0001D92A636B207E1F710E0C3E5D0E004C0F8
:1000E0002197FE010E944C05C235D107C9F70E9435
:1000F0004E040C9457050C9400008E3008F08E507E
:100100008770806480937C0080917A008064809303
:100110007A0080917A0086FDFCCF80917800209152
:10012000790090E0922B0895CF92DF92EF92FF92A8
:100130000F931F93CF93DF936C017A018B01C0E083
:10014000D0E0CE15DF0581F0D8016D918D01D6018B
:10015000ED91FC910190F081E02DC6010995892B6C
:1001600011F02196EECF7E01C701DF91CF911F9153
:100170000F91FF90EF90DF90CF900895089580E069
:1001800090E00895FC01538D448D252F30E0842F9D
:1001900090E0821B930B541710F0CF9608950197AF
:1001A0000895FC01918D828D981761F0828DDF0199
:1001B000A80FB11D5D968C91928D9F5F9F73928F5A
:1001C00090E008958FEF9FEF0895FC01918D828D4F
:1001D000981731F0828DE80FF11D858D90E008951C
:1001E0008FEF9FEF0895FC01918D228D892F90E074
:1001F000805C9F4F821B91098F73992708958EE031
:1002000092E00E94F30021E0892B09F420E0822F84
:100210000895FC01848DDF01A80FB11DA35ABF4FC3
:100220002C91848D90E001968F739927848FA689F5
:10023000B7892C93A089B1898C91837080648C9349
:10024000938D848D981306C00288F389E02D8081F8
:100250008F7D80830895EF92FF920F931F93CF932A
:10026000DF93EC0181E0888F9B8D8C8D981305C006
:10027000E889F989808185FD26C0F62E0B8D10E076
:100280000F5F1F4F0F731127E02E8C8DE8120CC0EB
:100290000FB607FCFACFE889F989808185FFF5CF91
:1002A000CE010E940901F1CF8B8DFE01E80FF11DF7
:1002B000E35AFF4FF0829FB7F8940B8FEA89FB89CE
:1002C000808180620AC09FB7F894EE89FF896083BD
:1002D000E889F98980818370806480839FBF81E091
:1002E00090E0DF91CF911F910F91FF90EF900895D3
:1002F000CF93DF93EC01888D8823C9F0EA89FB89CD
:10030000808185FD05C0A889B9898C9186FD0FC0C3
:100310000FB607FCF5CF808185FFF2CFA889B98998
:100320008C9185FFEDCFCE010E940901E7CFDF91CF
:10033000CF91089580E090E0892B29F00E94FF0082
:1003400081110C9400000895FC012481220F220FDA
:100350008581893018F08BB1837C02C08BB1837E9C
:100360008BB99BB1822F892B8BB908950E945205BE
:100370001F920F920FB60F9211242F933F938F93DA
:100380009F93AF93BF938091370190913801A091D3
:100390003901B0913A013091360123E0230F2D3716
:1003A00020F40196A11DB11D05C026E8230F029679
:1003B000A11DB11D20933601809337019093380120
:1003C000A0933901B0933A018091320190913301A9
:1003D000A0913401B09135010196A11DB11D80930A
:1003E000320190933301A0933401B0933501BF9152
:1003F000AF919F918F913F912F910F900FBE0F90D2
:100400001F9018951F920F920FB60F9211242F93E1
:100410003F934F935F936F937F938F939F93AF938C
:10042000BF93EF93FF938EE092E00E940901FF914A
:10043000EF91BF91AF919F918F917F916F915F915C
:100440004F913F912F910F900FBE0F901F901895D5
:100450001F920F920FB60F9211242F938F939F9399
:10046000EF93FF93E0911E02F0911F028081E091D3
:100470002402F091250282FD12C090818091270212
:100480008F5F8F7320912802821751F0E09127022D
:10049000F0E0E25FFD4F958F8093270201C08081DD
:1004A000FF91EF919F918F912F910F900FBE0F9021
:1004B0001F901895CF93DF9390E0FC01E057FF4F1A
:1004C0002491FC01E458FF4F8491882361F190E06E
:1004D000880F991FFC01EE58FF4FC591D491FC0184
:1004E000E859FF4FA591B491611109C09FB7F894E5
:1004F0008881209582238883EC912E230BC0623063
:1005000061F49FB7F8948881322F309583238883D4
:10051000EC912E2B2C939FBF06C08FB7F894E881E7
:100520002E2B28838FBFDF91CF9108950F93CF9308
:10053000DF93EC014B835D832C830E830E94A40127
:100540008B810E947D00887F9A87898798878F8317
:100550001882098381E08A83DF91CF910F910895FA
:100560000F93109211021092100288EE93E0A0E017
:10057000B0E08093120290931302A0931402B09300
:10058000150284E291E090930F0280930E0285ECB5
:1005900090E090931B0280931A0284EC90E0909379
:1005A0001D0280931C0280EC90E090931F028093C8
:1005B0001E0281EC90E0909321028093200282EC55
:1005C00090E0909323028093220286EC90E0909337
:1005D0002502809324021092270210922802109282
:1005E000290210922A028EE092E09093D00280932A
:1005F000CF021092D1021092D2021092D302109226
:10060000D8021092D7021092DA021092D9028FEF1C
:100610009FEF9093DC028093DB029093DE02809345
:10062000DD0283E08093DF021092E0021092E2028A
:100630001092E1021092E3021092E402109265031C
:1006400080E8E5EEF2E0DF011D928A95E9F710926D
:10065000AC021092AB021092AE021092AD02109258
:10066000B0021092AF021092B2021092B102109238
:10067000B4021092B3021092B6021092B502109218
:10068000B8021092B7021092BA021092B9021092F8
:10069000BC021092BB021092BE021092BD021092D8
:1006A000C0021092BF021092C2021092C1021092B8
:1006B000C4021092C3021092C6021092C502109298
:1006C000C8021092C7021092CA021092C902109278
:1006D000CC021092CB021092CE021092CD0283E196
:1006E00080930B0280E180930C0281E080930D02E5
:1006F00061E082E00E945A0261E083E00E945A02B7
:1007000061E084E00E945A0280910C02893020F05E
:1007100061E085E00E945A0240910B0250910C0268
:1007200060910D020EE620E08EEF91E00E949602AD
:1007300040910B0250910C0260910D0205E121E005
:1007400081EF91E00E94960240910B0250910C02C1
:1007500060910D0206E122E084EE91E00E94960293
:1007600040910B0250910C0260910D0203E723E0CF
:1007700087ED91E00E94960240910B0250910C028D
:1007800060910D0208E124E08AEC91E00E9496025B
:1007900040910B0250910C0260910D0209E125E09D
:1007A0008DEB91E00E94960240910B0250910C0259
:1007B00060910D0205E726E080EB91E00E94960231
:1007C00040910B0250910C0260910D0207E627E068
:1007D00083EA91E00E94960240910B0250910C0234
:1007E00060910D020CE128E086E991E00E949602FA
:1007F00040910B0250910C0260910D020DE129E035
:1008000089E891E00E94960240910B0250910C02FF
:1008100060910D020EE12AE08CE791E00E949602C1
:1008200040910B0250910C0260910D0200E72BE009
:100830008FE691E00E94960240910B0250910C02CB
:1008400060910D0206E72CE082E691E00E9496029C
:1008500040910B0250910C0260910D0206E52DE0D3
:1008600085E591E00E94960240910B0250910C02A6
:1008700060910D0207E52EE088E491E00E94960267
:1008800040910B0250910C0260910D0208E52FE09F
:100890008BE391E00E9496020F910895789484B5BD
:1008A000826084BD84B5816084BD85B5826085BD6C
:1008B00085B5816085BD80916E00816080936E00FA
:1008C00010928100809181008260809381008091EC
:1008D000810081608093810080918000816080939D
:1008E00080008091B10084608093B1008091B0005D
:1008F00081608093B00080917A00846080937A0058
:1009000080917A00826080937A0080917A00816081
:1009100080937A0080917A00806880937A001092A8
:10092000C100E091CF02F091D002A089B18982E0AC
:100930008C93A485B5851C92A685B7858FE38C938F
:10094000108EA489B58986E08C93A289B3898C9195
:1009500080618C93A289B3898C9188608C93A289E1
:10096000B3898C9180688C930288F389E02D808113
:100970008F7D808381E18093D1021092D302109207
:10098000D2021092DA021092D9021092D80210927A
:10099000D7028FEF9FEF9093DC028093DB0290935E
:1009A000DE028093DD02109265031092E202109243
:1009B000E1021092E0021092E3021092E4028091B0
:1009C000DF028170826081608093DF0230E0E32E7D
:1009D00031E0F32ED7010D911D917D01C8010E94D8
:1009E000A401F80183810E947D00D80118969C9390
:1009F0008E93179719962D913C911A97281B390BB6
:100A0000295F3F4F2F303105F0F1EC0183E0D595A0
:100A1000C7958A95E1F7CE0123E0880F991F2A95A3
:100A2000E1F71A969C938E931997CF3F61F1F801E5
:100A300062816150603138F5D181DF778091CF02DA
:100A40009091D002606BDC01ED91FC910190F081FE
:100A5000E02D09958091CF029091D002DC01ED91BB
:100A6000FC910190F081E02D6D2F09958091CF02CE
:100A70009091D0026C2F6F77DC01ED91FC91019089
:100A8000F081E02D0995B0E2EB16B1E0FB0609F02C
:100A9000A1CF0E949A019ACFEE0FFF1F0590F4910B
:100AA000E02D099481E090E0F8940C945705F894B7
:020AB000FFCF76
:100AB200FE01F101E401D701CA01BD01B001A301A8
:100AC200960189017C016F016201550148013B01D8
:100AD200000000002B019400C2007801F300D10055
:020AE200E5002D
:00000001FF
